:0E0000000C94BD000C9462010C9480010C94D1
:10000E0000000C9400000C9400000C9400000C9462
:10001E0000000C9400000C9400000C9400000C9452
:10002E0000000C9400000C9400000C9400000C9442
:10003E0000000C9400000C9400000C9400000C9432
:10004E0000000C9400000C9400000C9400000C9422
:10005E0000000C9400000C9400000C9400000C9412
:10006E0000000C9400000C9400000C9400000C9402
:10007E0000000C9400000C9400000C94000010275B
:10008E00E80364000A0001000010000110000100E6
:10009E0005000500000000006400FE4F12306824C9
:1000AE0004710020436F6E74726F6C20426F780083
:1000BE007365742020202020202020202020202046
:1000CE002073657400677265656E202020202020E5
:1000DE0020202020202072656400456E74657220F9
:1000EE0061206E756D62657228312D392900666F3B
:1000FE0072207265642074696D6572007265642089
:10010E0074696D65722069732073657400666F7211
:10011E002025757300666F7220677265656E207498
:10012E00696D657200677265656E2074696D6572C2
:10013E00206973207365740001002D4E414E0049F5
:10014E004E46000080C00A0004009E000A002405EE
:10015E00A800110000050A0113001105330101006A
:10016E00420546010200460552010000F894EE27B2
:10017E00ECBBF1E0F5BFE5BFE0936C008DE0A2E0D3
:10018E00BB27ED938A95E9F780E090E1A0E0B1E01E
:10019E00ED930197E9F7E4E5F1E0859195910097EC
:1001AE0061F0A591B59105901590BF01F0010590F4
:1001BE000D920197E1F7FB01F0CFEFEFEDBFE0E11C
:1001CE00EEBFC0E0D5E00C94CB01C29A43010024EF
:1001DE000814090434F40E945C04F40131974F01B1
:1001EE00F6CFC2980895C09A42010024081409045B
:1001FE0034F40E945C04F40131974F01F6CFC0989D
:10020E000895C19AE0912405EBBBD6010E94C50466
:10021E00C19808950E94C403E4E00E946504A2EB15
:10022E00B0E00E946904A2E00E94B303AEEBB0E01E
:10023E000E946904A3E00E94B303A3EDB0E00E9404
:10024E00010408959298939A949A859903C0E1E0D7
:10025E00F0E00895869903C0E4E0F0E008958799F0
:10026E0003C0E7E0F0E00895929A9398949A8599E6
:10027E0003C0E2E0F0E00895869903C0E5E0F0E007
:10028E000895879903C0E8E0F0E00895929A939A52
:10029E009498859903C0E3E0F0E00895869903C031
:1002AE00E6E0F0E00895879903C0E9E0F0E00895F4
:1002BE00EFEFFFEF08950E946E04A8EEB0E00E94EB
:1002CE006904A1E00E94B303ACEFB0E00E94010408
:1002DE000E94830411F00E94C403EFEFFFEFEA15B2
:1002EE00FB05B1F32501E0E00E946504A0E0B5E056
:1002FE001DC00E946E04A8EEB0E00E946904A1E049
:10030E000E94B303A3E2B1E00E9401040E948304A1
:10031E0011F00E94C403EFEFFFEFEA15FB05B1F3F6
:10032E003501E0E00E946504A1E1B5E00E94F20310
:10033E00E0E0EA93A1E00E94B303EEE2F5E0FA9367
:10034E00EA93EBE1F1E0FA93EA93F5010E94D70408
:10035E000E94E40484E00E945E032896AEE2B5E0BB
:10036E000E94F203D6010E94C50454DFE991EFBF4B
:10037E00F991E991B991A99199918991799169919F
:10038E00F990199009901895EFEFE7BBE0E0E8BB04
:10039E00EFEFE2B9E3B9EABBEBBBECE1E1BBE3EEB5
:1003AE00E2BBE0E0E0936A00EABFE3E0E9BFE8BF4A
:1003BE00A4E10E94140478942DDF07DF22DF13DFFF
:1003CE0020DFFBCFFFCFBA93AA931A930A93AA8189
:1003DE00BB8112960E94DC04309759F1AA81BB8131
:1003EE0014960E94DC048F01309761F00230E0E039
:1003FE001E0798F0F80131978F01AA81BB811496E0
:10040E00ED93FC93AA81BB811296ED91FD913196ED
:10041E00FE93EE933197AC81A083AA81BB810E949B
:10042E00DC04FF232AF0ED91FD913196FE93EE93BD
:10043E0006C0AA81BB81EFEFFFEFED93FC9319810C
:10044E00088125960895BA93AA9326970E94E904E7
:10045E0010E0AC85BD85E0E0F0E0ED93FC93EA8919
:10046E00FB893196EA8BFB8B3197E4912E2FE0308E
:10047E0009F415C1E12FE03039F4253211F411E001
:10048E0002C00E948B040AC1E130A9F4253219F48E
:10049E000E948B0402C112E040E000E02D3211F404
:1004AE0001E0FCC02B3211F44BE2F8C0203211F403
:1004BE0040E2F4C002C0E23039F450E013E02033E1
:1004CE0011F40068EBC003C0E33009F0E7C020333D
:1004DE0010F02A3308F007C0AAE05A9F502DE22FE1
:1004EE00E0535E0FDBC0E22FE33649F40E94920424
:1004FE00E889F989A481AA930E949804CEC0E337B3
:10050E0041F40E9492040E949E040E9443041E2FF6
:10051E000AC0E03761F40E9492040E949E040E9479
:10052E004F041E2F086002600F7730E034C0E436AF
:10053E0011F0E93611F4046002C0E53731F4ECE84D
:10054E00F0E0EE83FF8315E00CC0E83511F408608F
:10055E0003C0E83709F0A1C0E6E9F0E0EE83FF83BF
:10056E0014E002FF14C00E9492040E94A804AB85FE
:10057E00AA233AF4EA85FB850E94D304EA87FB8717
:10058E004DE2403011F01F5F01C00B7F04C00E948E
:10059E0092040E94A80400FD11C0151778F407FFFD
:1005AE0008C002FF04C00B7F242F115001C020E3AE
:1005BE0001C020E20E948B045150EFCF312F01FF7A
:1005CE0017C03030A1F003FF06C0EE81FF812591E8
:1005DE00EE83FF8305C0AE81BF812D91AE83BF83B5
:1005EE000E948B04503009F051503150EACF4BC06D
:1005FE0020E3EE81FF810E94E004E887F987EE8117
:10060E00FF813296EE83FF83E885F985AA85BB8547
:10061E00AE17BF0750F02F5FA885B985EA85FB8519
:10062E00EA1BFB0BEA87FB87EFCF2A3328F003FF89
:10063E0002C0295F01C0295D04FD1AC0213320F4D8
:10064E00A885B985119709F409C0531710F000FF5A
:10065E0001C013C020E207FF0BC020E3006102FFC0
:10066E0007C00B7F4A930E949804503009F05150F6
:10067E000E948B04503009F051503150A885B98535
:10068E00129708F0B5CF00FF08C0503031F051502E
:10069E00E0E2EA930E949804F8CF10E0E0CEAC8539
:1006AE00BD850E94DC040E94F00464960895FF92BA
:1006BE00F82E26970E94EB040E94B004309719F48E
:1006CE00EFEFFFEF23C0DE0116960E94CF048D01DF
:1006DE000E94B004EE83FF83E0E0E887E987DE0145
:1006EE001A960E94CF040E94DC04FA93EA931A939E
:1006FE000A93EAEEF1E0FA93EA93DE011A96A3DE8C
:10070E009F01AE81BF81E0E0EC93F9010E94F204FB
:10071E002A96FF900895AA93E3B1EF70AE2FE88169
:10072E00E07FEA2BE3B98BE18A95F1F71A9A8BE118
:10073E008A95F1F71A988BE18A95F1F79BC0AA93E7
:10074E00A881E9DFE881E295E883A881E4DF88ECFF
:10075E0090E00197F1F78EC0AA93E881F0E0EA5B92
:10076E00FA4FE081A981AE0FEADFE981E0934A05F5
:10077E00E881E0934B0522960895A2E00E94B7040B
:10078E00ACE0DDDFA1E00E94B704E0E0E0934B05B2
:10079E00E0934A050895AA93A881AA3031F0E0911A
:1007AE004C05A0914A05AE1760F0E0E0EA93A091E7
:1007BE004B05AF5FA0934B05CFDFA881AA3009F49C
:1007CE0059C0E0914A05EF5FE0934A05189AA88157
:1007DE00B6DF18984FC0BA93AA931A93A981BA811B
:1007EE00ED91A983BA831E2FE03019F0A12FD3DF2C
:1007FE00F5CF10C0BA93AA931A93E981FA81319674
:10080E00E983FA833197E4911E2FE03019F0A12F7E
:10081E00C2DFF3CF188123960895AA93E2B1E06F59
:10082E00E2B9129A109A119A1A9818981998E881A2
:10083E00E0934C05E058E0934805E881E054E093DE
:10084E004905A4E1B0E00E94C5040E94BD040E94C7
:10085E00BD040E94BD04A0E25EDF80E991E0019735
:10086E00F1F7A8E26CDFA4E06ADFA5E868DFA6E096
:10087E0066DF83DF21960895BA93AA93A991B99161
:10088E00EE27FF276D91662311F03196FBCF089569
:10089E00BA93AA93AA27BB27E991F9910590002054
:1008AE0011F01196FBCFFD010895A4E2B5E0A80D5D
:1008BE00B91DEC91EBBBD6010C94C504EA93A0E0F4
:1008CE000C94B3030E940104E0E0EA9308950A92A7
:1008DE001A92FA926A937A938A939A93AA93BA93F4
:1008EE00EA93FA93EFB7EA93A4E1B0E00E94C5044D
:1008FE000E94C403E0E0E2CF0E9429015F01EFEF06
:10090E00FFEFEA15FB0508952A93AD85BE85EF85A9
:10091E00F88909950895E889F9893497E88BF98B58
:10092E000895AD85BE85EF85F88909950895A88946
:10093E00B98914960E94DC04EE83FF83AE81BF81D9
:10094E000895A889B98914960E94DC04EA87FB876A
:10095E000895DE011C960E94CF040E94DC040895C7
:10096E000E94A603A3E0B0E00C94C504A0E30E948D
:10097E00920380E991E00197F1F70895109639F00E
:10098E0080EA9FE00197F1F7A8951197C9F70895AE
:10099E000024AF0DB01D0895F195E195F040089536
:1009AE006F2F660F660B762F0895ED91FC911197C0
:1009BE0008950590F491E02D08957A936A93FA9331
:1009CE00EA9308955A934A933A932A931A930A9361
:1009DE0008955D814C813B812A811981088108959A
:00000001FF
